{
  "_format": "hh-sol-artifact-1",
  "contractName": "BuyMeATea",
  "sourceName": "contracts/BuyMeATea.sol",
  "abi": [
    {
      "inputs": [],
      "stateMutability": "nonpayable",
      "type": "constructor"
    },
    {
      "anonymous": false,
      "inputs": [
        {
          "indexed": true,
          "internalType": "address",
          "name": "from",
          "type": "address"
        },
        {
          "indexed": false,
          "internalType": "uint256",
          "name": "timestamp",
          "type": "uint256"
        },
        {
          "indexed": false,
          "internalType": "string",
          "name": "name",
          "type": "string"
        },
        {
          "indexed": false,
          "internalType": "string",
          "name": "message",
          "type": "string"
        }
      ],
      "name": "NewMemo",
      "type": "event"
    },
    {
      "anonymous": false,
      "inputs": [
        {
          "indexed": false,
          "internalType": "uint256",
          "name": "amount",
          "type": "uint256"
        },
        {
          "indexed": false,
          "internalType": "uint256",
          "name": "when",
          "type": "uint256"
        }
      ],
      "name": "Withdrawal",
      "type": "event"
    },
    {
      "inputs": [
        {
          "internalType": "string",
          "name": "_name",
          "type": "string"
        },
        {
          "internalType": "string",
          "name": "_message",
          "type": "string"
        }
      ],
      "name": "buyTea",
      "outputs": [],
      "stateMutability": "payable",
      "type": "function"
    },
    {
      "inputs": [],
      "name": "getMemos",
      "outputs": [
        {
          "components": [
            {
              "internalType": "address",
              "name": "from",
              "type": "address"
            },
            {
              "internalType": "uint256",
              "name": "timestamp",
              "type": "uint256"
            },
            {
              "internalType": "string",
              "name": "name",
              "type": "string"
            },
            {
              "internalType": "string",
              "name": "message",
              "type": "string"
            }
          ],
          "internalType": "struct BuyMeATea.Memo[]",
          "name": "",
          "type": "tuple[]"
        }
      ],
      "stateMutability": "view",
      "type": "function"
    },
    {
      "inputs": [],
      "name": "getOwner",
      "outputs": [
        {
          "internalType": "address",
          "name": "",
          "type": "address"
        }
      ],
      "stateMutability": "view",
      "type": "function"
    },
    {
      "inputs": [],
      "name": "withdraw",
      "outputs": [],
      "stateMutability": "nonpayable",
      "type": "function"
    }
  ],
  "bytecode": "0x608060405234801561001057600080fd5b50336000806101000a81548173ffffffffffffffffffffffffffffffffffffffff021916908373ffffffffffffffffffffffffffffffffffffffff160217905550610c6e806100606000396000f3fe60806040526004361061003f5760003560e01c80633ccfd60b14610044578063865c51721461005b578063893d20e814610086578063911a72c8146100b1575b600080fd5b34801561005057600080fd5b506100596100cd565b005b34801561006757600080fd5b506100706101fd565b60405161007d919061090a565b60405180910390f35b34801561009257600080fd5b5061009b6103e0565b6040516100a891906108ef565b60405180910390f35b6100cb60048036038101906100c6919061069c565b610409565b005b60008054906101000a900473ffffffffffffffffffffffffffffffffffffffff1673ffffffffffffffffffffffffffffffffffffffff163373ffffffffffffffffffffffffffffffffffffffff161461015b576040517f08c379a00000000000000000000000000000000000000000000000000000000081526004016101529061092c565b60405180910390fd5b60008054906101000a900473ffffffffffffffffffffffffffffffffffffffff1673ffffffffffffffffffffffffffffffffffffffff166108fc479081150290604051600060405180830381858888f193505050501580156101c1573d6000803e3d6000fd5b507fbf2ed60bd5b5965d685680c01195c9514e4382e28e3a5a2d2d5244bf59411b9347426040516101f39291906109b1565b60405180910390a1565b60606001805480602002602001604051908101604052809291908181526020016000905b828210156103d757838290600052602060002090600402016040518060800160405290816000820160009054906101000a900473ffffffffffffffffffffffffffffffffffffffff1673ffffffffffffffffffffffffffffffffffffffff1673ffffffffffffffffffffffffffffffffffffffff168152602001600182015481526020016002820180546102b490610b14565b80601f01602080910402602001604051908101604052809291908181526020018280546102e090610b14565b801561032d5780601f106103025761010080835404028352916020019161032d565b820191906000526020600020905b81548152906001019060200180831161031057829003601f168201915b5050505050815260200160038201805461034690610b14565b80601f016020809104026020016040519081016040528092919081815260200182805461037290610b14565b80156103bf5780601f10610394576101008083540402835291602001916103bf565b820191906000526020600020905b8154815290600101906020018083116103a257829003601f168201915b50505050508152505081526020019060010190610221565b50505050905090565b60008060009054906101000a900473ffffffffffffffffffffffffffffffffffffffff16905090565b6000341161044c576040517f08c379a00000000000000000000000000000000000000000000000000000000081526004016104439061094c565b60405180910390fd5b600160405180608001604052803373ffffffffffffffffffffffffffffffffffffffff16815260200142815260200184815260200183815250908060018154018082558091505060019003906000526020600020906004020160009091909190915060008201518160000160006101000a81548173ffffffffffffffffffffffffffffffffffffffff021916908373ffffffffffffffffffffffffffffffffffffffff16021790555060208201518160010155604082015181600201908051906020019061051b929190610591565b506060820151816003019080519060200190610538929190610591565b5050503373ffffffffffffffffffffffffffffffffffffffff167fc56140e05f516509ae28110e0f72e17558a7561630dad2647c3ae87d986e365c4284846040516105859392919061096c565b60405180910390a25050565b82805461059d90610b14565b90600052602060002090601f0160209004810192826105bf5760008555610606565b82601f106105d857805160ff1916838001178555610606565b82800160010185558215610606579182015b828111156106055782518255916020019190600101906105ea565b5b5090506106139190610617565b5090565b5b80821115610630576000816000905550600101610618565b5090565b6000610647610642846109ff565b6109da565b90508281526020810184848401111561065f57600080fd5b61066a848285610ad2565b509392505050565b600082601f83011261068357600080fd5b8135610693848260208601610634565b91505092915050565b600080604083850312156106af57600080fd5b600083013567ffffffffffffffff8111156106c957600080fd5b6106d585828601610672565b925050602083013567ffffffffffffffff8111156106f257600080fd5b6106fe85828601610672565b9150509250929050565b60006107148383610867565b905092915050565b61072581610a96565b82525050565b61073481610a96565b82525050565b600061074582610a40565b61074f8185610a63565b93508360208202850161076185610a30565b8060005b8581101561079d578484038952815161077e8582610708565b945061078983610a56565b925060208a01995050600181019050610765565b50829750879550505050505092915050565b60006107ba82610a4b565b6107c48185610a74565b93506107d4818560208601610ae1565b6107dd81610bd5565b840191505092915050565b60006107f382610a4b565b6107fd8185610a85565b935061080d818560208601610ae1565b61081681610bd5565b840191505092915050565b600061082e601583610a85565b915061083982610be6565b602082019050919050565b6000610851601783610a85565b915061085c82610c0f565b602082019050919050565b600060808301600083015161087f600086018261071c565b50602083015161089260208601826108d1565b50604083015184820360408601526108aa82826107af565b915050606083015184820360608601526108c482826107af565b9150508091505092915050565b6108da81610ac8565b82525050565b6108e981610ac8565b82525050565b6000602082019050610904600083018461072b565b92915050565b60006020820190508181036000830152610924818461073a565b905092915050565b6000602082019050818103600083015261094581610821565b9050919050565b6000602082019050818103600083015261096581610844565b9050919050565b600060608201905061098160008301866108e0565b818103602083015261099381856107e8565b905081810360408301526109a781846107e8565b9050949350505050565b60006040820190506109c660008301856108e0565b6109d360208301846108e0565b9392505050565b60006109e46109f5565b90506109f08282610b46565b919050565b6000604051905090565b600067ffffffffffffffff821115610a1a57610a19610ba6565b5b610a2382610bd5565b9050602081019050919050565b6000819050602082019050919050565b600081519050919050565b600081519050919050565b6000602082019050919050565b600082825260208201905092915050565b600082825260208201905092915050565b600082825260208201905092915050565b6000610aa182610aa8565b9050919050565b600073ffffffffffffffffffffffffffffffffffffffff82169050919050565b6000819050919050565b82818337600083830152505050565b60005b83811015610aff578082015181840152602081019050610ae4565b83811115610b0e576000848401525b50505050565b60006002820490506001821680610b2c57607f821691505b60208210811415610b4057610b3f610b77565b5b50919050565b610b4f82610bd5565b810181811067ffffffffffffffff82111715610b6e57610b6d610ba6565b5b80604052505050565b7f4e487b7100000000000000000000000000000000000000000000000000000000600052602260045260246000fd5b7f4e487b7100000000000000000000000000000000000000000000000000000000600052604160045260246000fd5b6000601f19601f8301169050919050565b7f596f75206172656e277420746865206f776e6572210000000000000000000000600082015250565b7f43616e2774206275792074656120666f7220667265652100000000000000000060008201525056fea26469706673582212209bfda804229e77cc5e2a1929d56de6e24cd8183e279e1af512051f0faa6fcc0f64736f6c63430008040033",
  "linkReferences": {},
  "deployedLinkReferences": {}
}